:100000000C942A000C94A20E0C94CF0E0C94FC0EAF
:100010000C9447000C9447000C9447000C94470044
:100020000C9447000C9447000C9447000C94470034
:100030000C9447000C9447000C9447000C94470024
:100040000C9447000C9447000C9447000C94470014
:100050000C94470011241FBECFE5D8E0DEBFCDBF12
:1000600010E0A0E6B0E0E2E5FFE102C005900D92ED
:10007000A837B107D9F710E0A8E7B0E001C01D929A
:10008000AE37B107E1F70E94450F0C94A70F0C940F
:100090000000EF92FF920F931F937B018C0120E0F1
:1000A00030E040E05FE40E94490388238CF0C801FF
:1000B000B70120E030E040E05FE40E94C1010E940F
:1000C000A9039B01AC01205030404040504806C07D
:1000D000C801B7010E94A9039B01AC01B901CA0183
:1000E0001F910F91FF90EF900895A0E0B0E0EBE733
:1000F000F0E00C94700FDC012B01FA019C9192301E
:1001000008F439C1EB018881823008F433C194309E
:1001100069F4843009F02FC111969C91119789815F
:10012000981709F428C1A0E6B0E025C1843009F48D
:1001300021C18230A9F4923009F01DC19A01AD01AC
:1001400088E0EA010990AE01E90109929E0181501F
:10015000C1F7E201898111969C918923818308C1AD
:10016000923009F407C112962D903C901397EB0141
:100170008A819B811496AD90BD90CD90DC901797AD
:10018000EC80FD800E811F819101281B390BB90184
:1001900037FF04C066277727621B730B6032710537
:1001A0000CF061C0121613066CF537014801062EDB
:1001B00004C096948794779467940A94D2F721E0C8
:1001C00030E040E050E004C0220F331F441F551FB1
:1001D0006A95D2F721503040404050402E213F21B7
:1001E00040235123211531054105510521F021E01E
:1001F00030E040E050E079018A01E628F72808293C
:1002000019293CC0232BD1F1260E371E350146019A
:10021000062E04C096948794779467940A94D2F734
:1002200021E030E040E050E004C0220F331F441FC3
:10023000551F6A95D2F721503040404050402A2146
:100240003B214C215D21211531054105510521F04E
:1002500021E030E040E050E059016A01A628B728CB
:10026000C828D9280BC0821593052CF01C01AA249C
:10027000BB24650103C0EE24FF24870111969C91E5
:10028000D20111968C91981709F445C0992339F041
:10029000A80197012A193B094C095D0906C0A6016E
:1002A00095012E193F09400B510B57FD08C01182D3
:1002B0003382228224833583468357831DC081E0A5
:1002C00081833382228288279927DC01821B930B4A
:1002D000A40BB50B84839583A683B7830DC0220F2F
:1002E000331F441F551F24833583468357838281E0
:1002F000938101979383828324813581468157813D
:10030000DA01C9010197A109B1098F5F9F4FAF4F72
:10031000BF4328F30BC0918333822282EA0CFB1C7B
:100320000C1D1D1DE482F5820683178383E0808304
:10033000248135814681578157FF1AC0C901AA27F8
:1003400097FDA095BA2F81709070A070B0705695EF
:10035000479537952795822B932BA42BB52B848318
:100360009583A683B7838281938101969383828349
:10037000DF0101C0D201CD01CDB7DEB7E2E10C94BF
:100380008C0FA0E2B0E0E7ECF1E00C947C0F698305
:100390007A838B839C832D833E834F835887E9E048
:1003A000EE2EF12CEC0EFD1ECE010196B7010E943F
:1003B000D2048E010F5E1F4FCE010596B8010E9438
:1003C000D2048A8991E089278A8BC701B801AE01DE
:1003D000475E5F4F0E9475000E94FD03A096E6E015
:1003E0000C94980FA0E2B0E0E8EFF1E00C947C0FE1
:1003F00069837A838B839C832D833E834F835887C5
:10040000F9E0EF2EF12CEC0EFD1ECE010196B701A6
:100410000E94D2048E010F5E1F4FCE010596B801D7
:100420000E94D204C701B801AE01475E5F4F0E942F
:1004300075000E94FD03A096E6E00C94980FA0E2E0
:10044000B0E0E5E2F2E00C94700F69837A838B836D
:100450009C832D833E834F835887CE010196BE0136
:10046000675F7F4F0E94D204CE010596BE016F5E8A
:100470007F4F0E94D2049985923088F0898982301A
:10048000C8F0943019F4823051F404C0843029F457
:10049000923081F480E690E0C6C0923049F420E0CA
:1004A0009A858A89981321E02A87CE010996BBC0D4
:1004B000823049F420E09A858A89981321E02A8BBA
:1004C000CE014196B0C02D843E844F8458886D88FB
:1004D0007E888F88988CEE24FF248701AA24BB2471
:1004E000650140E050E060E070E0E0E0F0E0C10174
:1004F00081709070892BE9F0E60CF71C081D191D1E
:100500009A01AB012A0D3B1D4C1D5D1D80E090E062
:10051000A0E0B0E0E614F7040805190520F481E036
:1005200090E0A0E0B0E0BA01A901480F591F6A1F8E
:100530007B1FAA0CBB1CCC1CDD1C97FE08C081E0F5
:1005400090E0A0E0B0E0A82AB92ACA2ADB2A3196B6
:10055000E032F10549F0660C771C881C991C569412
:10056000479437942794C3CFFA85EA892B893C892D
:100570008B859C85280F391F2E5F3F4F17C0CA01FE
:1005800081709070892B61F016950795F794E79428
:1005900080E090E0A0E0B0E8E82AF92A0A2B1B2BC3
:1005A00076956795579547952F5F3F4F77FDE7CF36
:1005B0000CC0440F551F661F771F17FD4160EE0CDE
:1005C000FF1C001F111F21503040403090E05907A0
:1005D00090E0690790E4790760F32B8F3C8FDB0193
:1005E000CA018F779070A070B07080349105A1051A
:1005F000B10561F447FD0AC0E114F10401051105DC
:1006000029F0405C5F4F6F4F7F4F40781A8EFE1786
:1006100011F081E08A8F4D8F5E8F6F8F78A383E01A
:10062000898FCE0149960E94FD03A096E2E10C94C9
:100630008C0FA8E1B0E0EFE1F3E00C947C0F69834C
:100640007A838B839C832D833E834F83588789E0F5
:10065000E82EF12CEC0EFD1ECE010196B7010E9492
:10066000D2048E010F5E1F4FCE010596B8010E9485
:10067000D2048985823040F08989823028F0C70110
:10068000B8010E944A0501C08FEF6896E6E00C941D
:10069000980FA8E1B0E0EFE4F3E00C947C0F6983DD
:1006A0007A838B839C832D833E834F83588789E095
:1006B000E82EF12CEC0EFD1ECE010196B7010E9432
:1006C000D2048E010F5E1F4FCE010596B8010E9425
:1006D000D2048985823040F08989823028F0C701B0
:1006E000B8010E944A0501C08FEF6896E6E00C94BD
:1006F000980FA8E1B0E0EFE7F3E00C947C0F69837A
:100700007A838B839C832D833E834F83588789E034
:10071000E82EF12CEC0EFD1ECE010196B7010E94D1
:10072000D2048E010F5E1F4FCE010596B8010E94C4
:10073000D2048985823040F08989823028F0C7014F
:10074000B8010E944A0501C081E06896E6E00C9479
:10075000980FACE0B0E0EFEAF3E00C94800F69830F
:100760007A838B839C83CE010196BE016B5F7F4FA2
:100770000E94D2048D81823061F1823050F1843048
:1007800021F48E81882351F12EC02F81388537FDC9
:1007900020C06E812F3131051CF06623F9F023C093
:1007A0008EE190E0821B930B29853A854B855C8511
:1007B00004C056954795379527958A95D2F76623B5
:1007C000B1F050954095309521953F4F4F4F5F4F79
:1007D0000EC020E030E040E050E009C02FEF3FEFD6
:1007E0004FEF5FE704C020E030E040E050E8B9019F
:1007F000CA012C96E2E00C949C0FDF92EF92FF92DC
:100800000F931F93FC01E480F58006811781D1804E
:100810008081823048F480E090E0A0E1B0E0E82AF6
:10082000F92A0A2B1B2BA5C0843009F49FC0823003
:1008300021F4EE24FF24870105C0E114F104010531
:10084000110519F4E0E0F0E096C0628173819FEF3A
:10085000623879070CF05BC022E83FEF261B370BAC
:100860002A3131052CF020E030E040E050E02AC091
:10087000B801A701022E04C0769567955795479554
:100880000A94D2F781E090E0A0E0B0E004C0880FC5
:10089000991FAA1FBB1F2A95D2F70197A109B10979
:1008A0008E219F21A023B1230097A105B10521F03E
:1008B00081E090E0A0E0B0E09A01AB01282B392B59
:1008C0004A2B5B2BDA01C9018F779070A070B07052
:1008D00080349105A105B10539F427FF09C0205CDA
:1008E0003F4F4F4F5F4F04C0215C3F4F4F4F5F4F13
:1008F000E0E0F0E02030A0E03A07A0E04A07A0E402
:100900005A0710F0E1E0F0E079018A0127C0603871
:10091000710564F5FB01E158FF4FD801C7018F77DE
:100920009070A070B07080349105A105B10539F4C4
:10093000E7FE0DC080E490E0A0E0B0E004C08FE3EB
:1009400090E0A0E0B0E0E80EF91E0A1F1B1F17FFA1
:1009500005C016950795F794E794319687E01695AC
:100960000795F794E7948A95D1F705C0EE24FF2404
:100970008701EFEFF0E06E2F679566276795902F60
:100980009F77D794DD24D7948E2F8695492F462BB9
:10099000582F5D29B701CA011F910F91FF90EF9069
:1009A000DF900895FC01DB01408151812281622F9B
:1009B0006F7770E0221F2227221F9381892F880FD3
:1009C000822B282F30E0991F9927991F11969C930D
:1009D000119721153105A9F54115510561057105DD
:1009E00011F482E037C082E89FEF13969C938E93B8
:1009F00012979A01AB0167E0220F331F441F551F66
:100A00006A95D1F783E08C930DC0220F331F441FEA
:100A1000551F12968D919C911397019713969C9355
:100A20008E931297203080E0380780E0480780E4FA
:100A3000580758F314962D933D934D935C93179755
:100A400008952F3F310579F4411551056105710570
:100A500019F484E08C93089564FF03C081E08C93C3
:100A600012C01C9210C02F57304013963C932E9307
:100A7000129783E08C9387E0440F551F661F771F02
:100A80008A95D1F7706414964D935D936D937C9322
:100A9000179708951F93DC01FB019C91923008F495
:100AA00047C08081823008F443C0943051F41196DD
:100AB0001C91843099F58181682F70E0611B710968
:100AC0003FC0843021F0923031F48230B9F181811D
:100AD000882389F12DC011961C9111978230F1F075
:100AE00081811817D9F412962D913C911397828128
:100AF00093818217930794F028173907BCF0149656
:100B00008D919D910D90BC91A02D248135814681C0
:100B10005781281739074A075B0718F4112341F05A
:100B20000AC082179307A407B50740F4112319F0F0
:100B300061E070E005C06FEF7FEF02C060E070E041
:100B4000CB011F910895DF93CF93CDB7DEB7A29766
:100B50000FB6F894DEBF0FBECDBF1C828FEF8B8324
:100B600084E08E8385E08F8386E0888787E08987AD
:100B70001A8681E08B8782E08C8783E08D87CE01A7
:100B80000E969F8F8E8FE8E6F0E0F9A3E8A3F0E1E0
:100B9000FAA3E8A1F9A1008088A199A1019699A3DF
:100BA00088A3EE8DFF8D00828E8D9F8D01969F8F85
:100BB0008E8F9AA191509AA3EAA1EE2351F71A823F
:100BC0006BC08A81282F30E0CE010696FC01E20F2F
:100BD000F31F908183E0692F42E00E942E0B19825F
:100BE00043C08981282F30E0CE010A96FC01E20F34
:100BF000F31F90819E012B5F3F4F83E0692FA90176
:100C00000E943F0C8D81882361F58981282F30E077
:100C10008A81482F50E0220F331F220F331FCE014D
:100C20000196820F931F840F951FFC013D968081D2
:100C30008B8311C08981282F30E0CE010A96FC01F8
:100C4000E20FF31F90819E012B5F3F4F83E0692FDE
:100C5000A9010E943F0C8D81882361F381E08C8380
:100C600007C089818F5F89838981843008F4B9CF77
:100C70008A81282F30E0CE010696FC01E20FF31F97
:100C8000908183E0692F41E00E942E0B8C8181309E
:100C900039F08A818F5F8A838A81843008F491CF0A
:100CA0008B81A2960FB6F894DEBF0FBECDBFCF9159
:100CB000DF910895DF93CF93CDB7DEB72F970FB6AF
:100CC000F894DEBF0FBECDBF8F8782E060E042E0C8
:100CD0000E942E0B82E061E042E00E942E0B81E038
:100CE0006F850E94DA0C82E062E041E00E942E0BE8
:100CF00080E090E0A0E0B0E48B879C87AD87BE8762
:100D00006B857C858D859E8520E030E04AEF54E43C
:100D10000E941F02DC01CB018F839887A987BA87C5
:100D20006F81788589859A8520E030E040E85FE32F
:100D30000E94790388232CF481E090E09E838D83C8
:100D40003FC06F81788589859A8520E03FEF4FE726
:100D500057E40E94190318164CF56B857C858D8528
:100D60009E8520E030E040E251E40E941F02DC0159
:100D7000CB01BC01CD010E944900DC01CB019E8367
:100D80008D830FC088EC90E09C838B838B819C814A
:100D90000197F1F79C838B838D819E8101979E83C0
:100DA0008D838D819E81009769F714C06F8178854E
:100DB00089859A850E944900DC01CB019E838D8341
:100DC0008D819E819A83898389819A810197F1F728
:100DD0009A83898382E062E042E00E942E0B2F9684
:100DE0000FB6F894DEBF0FBECDBFCF91DF9108954F
:100DF000DF93CF93CDB7DEB72F970FB6F894DEBF52
:100E00000FBECDBF8F8782E060E041E00E942E0BD5
:100E100082E061E042E00E942E0B81E06F850E943B
:100E2000DA0C82E062E041E00E942E0B80E090E06C
:100E3000A0E0B0E48B879C87AD87BE876B857C85FF
:100E40008D859E8520E030E04AEF54E40E941F0229
:100E5000DC01CB018F839887A987BA876F8178855A
:100E600089859A8520E030E040E85FE30E947903BD
:100E700088232CF481E090E09E838D833FC06F81B6
:100E8000788589859A8520E03FEF4FE757E40E94F7
:100E9000190318164CF56B857C858D859E8520E0A1
:100EA00030E040E251E40E941F02DC01CB01BC01B2
:100EB000CD010E944900DC01CB019E838D830FC0D0
:100EC00088EC90E09C838B838B819C810197F1F768
:100ED0009C838B838D819E8101979E838D838D81E1
:100EE0009E81009769F714C06F81788589859A85FE
:100EF0000E944900DC01CB019E838D838D819E8100
:100F00009A83898389819A810197F1F79A838983EA
:100F100082E062E042E00E942E0B2F960FB6F8941A
:100F2000DEBF0FBECDBFCF91DF910895DF93CF938A
:100F3000CDB7DEB72E970FB6F894DEBF0FBECDBF8C
:100F400080E090E0A0E2B2E48B879C87AD87BE870B
:100F50006B857C858D859E8520E030E04AEF54E4EA
:100F60000E941F02DC01CB018F839887A987BA8773
:100F70006F81788589859A8520E030E040E85FE3DD
:100F80000E94790388232CF481E090E09E838D8376
:100F90003FC06F81788589859A8520E03FEF4FE7D4
:100FA00057E40E94190318164CF56B857C858D85D6
:100FB0009E8520E030E040E251E40E941F02DC0107
:100FC000CB01BC01CD010E944900DC01CB019E8315
:100FD0008D830FC088EC90E09C838B838B819C81F8
:100FE0000197F1F79C838B838D819E8101979E836E
:100FF0008D838D819E81009769F714C06F817885FC
:1010000089859A850E944900DC01CB019E838D83EE
:101010008D819E819A83898389819A810197F1F7D5
:101020009A83898388E30E945A068CE00E945A06BC
:1010300081E00E945A062E960FB6F894DEBF0FBECE
:10104000CDBFCF91DF910895DF93CF9300D0CDB77F
:10105000DEB79A8389830AC0E981FA8180810E9480
:10106000F80689819A8101969A838983E981FA81B8
:101070008081882389F70F900F90CF91DF91089599
:10108000DF93CF930F92CDB7DEB789838981805DDF
:101090000E94F8060F90CF91DF910895DF93CF93D0
:1010A00000D0CDB7DEB789836A838981882329F48C
:1010B0008A8180580E945A0607C08981813021F4B4
:1010C0008A8180540E945A060F900F90CF91DF9131
:1010D0000895DF93CF93CDB7DEB728970FB6F89476
:1010E000DEBF0FBECDBF9E838D836F8348871B827B
:1010F0008D819E819A8389830DC08B818F5F8B83C5
:1011000089819A812AE030E0B9010E945C0FCB010D
:101110009A83898389819A81009779F71C8223C0F9
:1011200098858B81980F8C81292F281B822F982FCF
:1011300091508F81692F0E944E088D819E812AE0F7
:1011400030E0B9010E945C0F0E9440088D819E81B1
:101150002AE030E0B9010E945C0FCB019E838D83B1
:101160008C818F5F8C839C818B819817C8F2289625
:101170000FB6F894DEBF0FBECDBFCF91DF910895BB
:10118000DF93CF9300D00F92CDB7DEB789836A8308
:101190004B838A816B810E944E0889810E94F806E8
:1011A0000F900F900F90CF91DF910895DF93CF9321
:1011B000CDB7DEB72C970FB6F894DEBF0FBECDBF0C
:1011C0006F83788789879A874B872C8719826F81ED
:1011D000788589859A850E944900DC01CB019E8330
:1011E0008D830DC089818F5F89838D819E812AE0E7
:1011F00030E0B9010E945C0FCB019E838D838D810D
:101200009E81009779F71A8213C06F81788589854E
:101210009A8520E030E040E251E40E941F02DC01A8
:10122000CB018F839887A987BA878A818F5F8A834A
:101230008A81823050F36F81788589859A850E94F2
:101240004900DC01CB019C838B831A822AC09C85D8
:101250008981980F8A81292F281B822F982F9E5FC2
:101260008B85692F0E944E088A818230A1F08B8184
:101270009C812AE030E0B9010E945C0F0E94400886
:101280008B819C812AE030E0B9010E945C0FCB0188
:101290009C838B8303C08EE20E94F8068A818F5F55
:1012A0008A838A81282F30E08981882F90E00396F5
:1012B0002817390764F22C960FB6F894DEBF0FBEDC
:1012C000CDBFCF91DF910895DF93CF93CDB7DEB738
:1012D00081E00E945A06CF91DF910895DF93CF936A
:1012E000CDB7DEB727970FB6F894DEBF0FBECDBFE0
:1012F0009C838B836D834E832F831A828D81882FED
:1013000090E0880F991F880F991F880F991F8A8373
:101310008A81805C0E945A0619820EC08981282F1A
:1013200030E08B819C81FC01E20FF31F80810E94E1
:10133000F80689818F5F89838981883078F38E816F
:101340006F810E944E088D810E94F80627960FB685
:10135000F894DEBF0FBECDBFCF91DF910895DF932C
:10136000CF93CDB7DEB7A7E2B0E0E7E2F0E080814F
:101370008F778C93A7E2B0E0E7E2F0E080818064B1
:101380008C93A7E2B0E0E7E2F0E080818F7D8C9360
:10139000A6E2B0E0E6E2F0E0808180688C93A6E20D
:1013A000B0E0E6E2F0E0808181608C93A6E2B0E0FC
:1013B000E6E2F0E0808182608C93A6E2B0E0E6E2B3
:1013C000F0E0808184608C93CF91DF910895DF936A
:1013D000CF930F92CDB7DEB78983A7E2B0E0E7E203
:1013E000F0E08081807E8C93A7E2B0E0E7E2F0E05D
:1013F00090818981892B8C93A6E2B0E0E6E2F0E04F
:10140000808180648C93E6E2F0E0808182958F7029
:10141000882F90E0817090700097A9F3A6E2B0E069
:10142000E6E2F0E0808180618C93E4E2F0E080818C
:1014300091810F90CF91DF910895DF93CF93CDB736
:10144000DEB728970FB6F894DEBF0FBECDBF8A83F4
:101450006B834C8319828B81883008F0F3C08C81B8
:10146000823009F078C08A81282F30E038872F83B6
:101470008F8198858230910561F12F8138852330E5
:10148000310534F48F8198858130910569F060C011
:101490002F8138852330310589F18F8198858430FB
:1014A000910509F440C054C0AAE3B0E0EAE3F0E0DB
:1014B0008081482F8B81282F30E081E090E0022E40
:1014C00002C0880F991F0A94E2F7809584238C93B9
:1014D000BBC0A7E3B0E0E7E3F0E08081482F8B8159
:1014E000282F30E081E090E0022E02C0880F991F83
:1014F0000A94E2F7809584238C93A6C0A4E3B0E01D
:10150000E4E3F0E08081482F8B81282F30E081E0F8
:1015100090E0022E02C0880F991F0A94E2F780958E
:1015200084238C9391C0A1E3B0E0E1E3F0E08081FB
:10153000482F8B81282F30E081E090E0022E02C0FE
:10154000880F991F0A94E2F7809584238C937CC0BE
:1015500081E0898379C08C81813009F075C08A81EE
:10156000282F30E03E832D838D819E81823091052E
:1015700051F12D813E812330310534F48D819E81DE
:101580008130910561F05BC02D813E8123303105B2
:1015900071F18D819E8184309105E9F150C0AAE3FB
:1015A000B0E0EAE3F0E08081482F8B81282F30E023
:1015B00081E090E0022E02C0880F991F0A94E2F7A2
:1015C000842B8C9341C0A7E3B0E0E7E3F0E0808197
:1015D000482F8B81282F30E081E090E0022E02C05E
:1015E000880F991F0A94E2F7842B8C932DC0A4E3F3
:1015F000B0E0E4E3F0E08081482F8B81282F30E0D9
:1016000081E090E0022E02C0880F991F0A94E2F751
:10161000842B8C9319C0A1E3B0E0E1E3F0E080817A
:10162000482F8B81282F30E081E090E0022E02C00D
:10163000880F991F0A94E2F7842B8C9305C081E0F0
:10164000898302C081E08983898128960FB6F89446
:10165000DEBF0FBECDBFCF91DF910895DF93CF9353
:10166000CDB7DEB728970FB6F894DEBF0FBECDBF5B
:101670008A836B834C8319828B81883008F0F3C096
:101680008C81823009F078C08A81282F30E0388739
:101690002F838F8198858230910561F12F81388564
:1016A0002330310534F48F8198858130910569F0BC
:1016B00060C02F8138852330310589F18F8198856D
:1016C0008430910509F440C054C0ABE3B0E0EBE3D3
:1016D000F0E08081482F8B81282F30E081E090E07E
:1016E000022E02C0880F991F0A94E2F78095842386
:1016F0008C93BBC0A8E3B0E0E8E3F0E08081482F22
:101700008B81282F30E081E090E0022E02C0880F0C
:10171000991F0A94E2F7809584238C93A6C0A5E3D1
:10172000B0E0E5E3F0E08081482F8B81282F30E0A6
:1017300081E090E0022E02C0880F991F0A94E2F720
:10174000809584238C9391C0A2E3B0E0E2E3F0E0C3
:101750008081482F8B81282F30E081E090E0022E9D
:1017600002C0880F991F0A94E2F7809584238C9316
:101770007CC081E0898379C08C81813009F075C09B
:101780008A81282F30E03E832D838D819E81823097
:10179000910551F12D813E812330310534F48D8145
:1017A0009E818130910561F05BC02D813E812330A7
:1017B000310571F18D819E8184309105E9F150C030
:1017C000ABE3B0E0EBE3F0E08081482F8B81282F82
:1017D00030E081E090E0022E02C0880F991F0A9449
:1017E000E2F7842B8C9341C0A8E3B0E0E8E3F0E09B
:1017F0008081482F8B81282F30E081E090E0022EFD
:1018000002C0880F991F0A94E2F7842B8C932DC095
:10181000A5E3B0E0E5E3F0E08081482F8B81282F3D
:1018200030E081E090E0022E02C0880F991F0A94F8
:10183000E2F7842B8C9319C0A2E3B0E0E2E3F0E07E
:101840008081482F8B81282F30E081E090E0022EAC
:1018500002C0880F991F0A94E2F7842B8C9305C06D
:1018600081E0898302C081E08983898128960FB64F
:10187000F894DEBF0FBECDBFCF91DF910895DF9307
:10188000CF93CDB7DEB727970FB6F894DEBF0FBE64
:10189000CDBF8A836B835D834C8319828C819D814C
:1018A000009709F47BC08B81883008F074C08A816E
:1018B000282F30E03F832E834E815F8142305105D7
:1018C00059F18E819F818330910534F42E813F81BF
:1018D0002130310569F05CC04E815F814330510594
:1018E00079F18E819F818430910509F43DC050C00B
:1018F000E9E3F0E08081282F30E08B81882F90E0B1
:10190000A90102C0559547958A95E2F7CA018170F1
:10191000EC81FD81808344C0E6E3F0E08081282FE4
:1019200030E08B81882F90E0A90102C05595479542
:101930008A95E2F7CA018170EC81FD81808330C015
:10194000E3E3F0E08081282F30E08B81882F90E066
:10195000A90102C0559547958A95E2F7CA018170A1
:10196000EC81FD8180831CC0E0E3F0E08081282FC2
:1019700030E08B81882F90E0A90102C055954795F2
:101980008A95E2F7CA018170EC81FD81808308C0ED
:1019900081E0898305C081E0898302C082E0898378
:1019A000898127960FB6F894DEBF0FBECDBFCF91C9
:1019B000DF910895DF93CF9300D000D00F92CDB781
:1019C000DEB78A836B8319828A81282F30E03D83BA
:1019D0002C838C819D8182309105D9F02C813D81B1
:1019E0002330310534F48C819D818130910561F083
:1019F0001FC02C813D812330310581F08C819D8178
:101A00008430910581F014C0EBE3F0E08B8180839A
:101A100011C0E8E3F0E08B8180830CC0E5E3F0E0E7
:101A20008B81808307C0E2E3F0E08B81808302C07A
:101A300081E0898381E0898389810F900F900F90E5
:101A40000F900F90CF91DF910895DF93CF93CDB793
:101A5000DEB7EAE3F0E01082E7E3F0E087E88083B6
:101A6000E4E3F0E08FEF8083E1E3F0E08BEF80834D
:101A7000EBE3F0E01082E8E3F0E01082E5E3F0E071
:101A80008FEF8083E2E3F0E084EF8083CF91DF91FA
:101A90000895DF93CF93CDB7DEB7A5E5B0E0E5E5D8
:101AA000F0E080818E7F8C93A5E5B0E0E5E5F0E085
:101AB000808182608C93ABE5B0E0EBE5F0E0808163
:101AC00080648C93CF91DF910895DF93CF93CDB74E
:101AD000DEB7A5E5B0E0E5E5F0E0808184608C93B9
:101AE000A5E5B0E0E5E5F0E08081877F8C93ABE58C
:101AF000B0E0EBE5F0E0808180688C93CF91DF91DE
:101B00000895DF93CF93CDB7DEB7A4E5B0E0E4E569
:101B1000F0E0808180648C93ABE5B0E0EBE5F0E031
:101B2000808180628C93CF91DF910895DF93CF9372
:101B3000CDB7DEB728970FB6F894DEBF0FBECDBF86
:101B400089836A838981813009F048C08A81282F7E
:101B500030E038872F838F81988582309105C9F0D6
:101B60002F8138852330310519F18F819885813097
:101B7000910561F5A5E5B0E0E5E5F0E080818160E3
:101B80008C93A5E5B0E0E5E5F0E0808182608C9380
:101B90001DC0A5E5B0E0E5E5F0E080818E7F8C9387
:101BA000A5E5B0E0E5E5F0E0808182608C930EC0B1
:101BB000A5E5B0E0E5E5F0E0808181608C93A5E5E6
:101BC000B0E0E5E5F0E080818D7F8C93ABE5B0E09F
:101BD000EBE5F0E0808180648C9375C08981823070
:101BE00009F048C08A81282F30E03E832D838D8103
:101BF0009E8182309105C9F02D813E8123303105CF
:101C000019F18D819E818130910561F5A5E5B0E0E6
:101C1000E5E5F0E0808184608C93A5E5B0E0E5E542
:101C2000F0E0808188608C931DC0A5E5B0E0E5E51B
:101C3000F0E080818B7F8C93A5E5B0E0E5E5F0E0F6
:101C4000808188608C930EC0A5E5B0E0E5E5F0E00A
:101C5000808184608C93A5E5B0E0E5E5F0E08081CB
:101C6000877F8C93ABE5B0E0EBE5F0E080818068A6
:101C70008C9329C08981833031F58A81282F30E007
:101C80003C832B838B819C818130910531F02B81AA
:101C90003C812230310549F00FC0A4E5B0E0E4E515
:101CA000F0E0808180648C9307C0A4E5B0E0E4E5B7
:101CB000F0E080818F7B8C93ABE5B0E0EBE5F0E06A
:101CC000808180628C9328960FB6F894DEBF0FBE99
:101CD000CDBFCF91DF910895DF93CF9300D0CDB7E3
:101CE000DEB79A83898389819A8190937900809362
:101CF00078000F900F90CF91DF910895DF93CF93ED
:101D000000D0CDB7DEB79A83898389819A81909379
:101D10007B0080937A000F900F90CF91DF91089510
:101D2000DF93CF9300D0CDB7DEB79A8389838981C3
:101D30009A8190937D0080937C000F900F90CF91BB
:101D4000DF9108951F920F920FB60F9211242F93D7
:101D50003F934F935F936F937F938F939F93AF9333
:101D6000BF93EF93FF93DF93CF93CDB7DEB7E091AF
:101D70007800F09179000995CF91DF91FF91EF9173
:101D8000BF91AF919F918F917F916F915F914F9193
:101D90003F912F910F900FBE0F901F9018951F929B
:101DA0000F920FB60F9211242F933F934F935F938F
:101DB0006F937F938F939F93AF93BF93EF93FF9313
:101DC000DF93CF93CDB7DEB7E0917A00F0917B003F
:101DD0000995CF91DF91FF91EF91BF91AF919F91C5
:101DE0008F917F916F915F914F913F912F910F90C4
:101DF0000FBE0F901F9018951F920F920FB60F9263
:101E000011242F933F934F935F936F937F938F93FF
:101E10009F93AF93BF93EF93FF93DF93CF93CDB790
:101E2000DEB7E0917C00F0917D000995CF91DF91C4
:101E3000FF91EF91BF91AF919F918F917F916F91A2
:101E40005F914F913F912F910F900FBE0F901F9078
:101E50001895DF93CF93CDB7DEB7AFE5B0E0EFE5F0
:101E6000F0E0808180688C93CF91DF910895DF93BB
:101E7000CF93CDB7DEB7AFE5B0E0EFE5F0E080811E
:101E80008F778C93CF91DF910895DF93CF930F924B
:101E9000CDB7DEB70E94250D0E94AF0980E00E94F9
:101EA000E709898383E069810E94DA0C82E060E0BF
:101EB00049810E942E0BF2CFAA1BBB1B51E107C028
:101EC000AA1FBB1FA617B70710F0A61BB70B881FCA
:101ED000991F5A95A9F780959095BC01CD01089559
:101EE0002F923F924F925F926F927F928F929F922A
:101EF000AF92BF92CF92DF92EF92FF920F931F9318
:101F0000CF93DF93CDB7DEB7CA1BDB0B0FB6F894C8
:101F1000DEBF0FBECDBF09942A88398848885F8408
:101F20006E847D848C849B84AA84B984C884DF8079
:101F3000EE80FD800C811B81AA81B981CE0FD11D5D
:101F40000FB6F894DEBF0FBECDBFED010895F89433
:021F5000FFCFC1
:101F520000000000000000003738392F3435362ADF
:081F62003132332D23303D2BF9
:00000001FF
